{
  "_format": "hh-sol-artifact-1",
  "contractName": "Domains",
  "sourceName": "contracts/Domains.sol",
  "abi": [
    {
      "inputs": [
        {
          "internalType": "string",
          "name": "_tld",
          "type": "string"
        }
      ],
      "stateMutability": "payable",
      "type": "constructor"
    },
    {
      "inputs": [],
      "name": "AlreadyInUsed",
      "type": "error"
    },
    {
      "inputs": [],
      "name": "DomainLengthZero",
      "type": "error"
    },
    {
      "inputs": [],
      "name": "InsufficientPayment",
      "type": "error"
    },
    {
      "inputs": [
        {
          "internalType": "string",
          "name": "name",
          "type": "string"
        }
      ],
      "name": "InvalidName",
      "type": "error"
    },
    {
      "inputs": [],
      "name": "NotAllowedSender",
      "type": "error"
    },
    {
      "inputs": [],
      "name": "OnlyOwner",
      "type": "error"
    },
    {
      "inputs": [],
      "name": "WithdrawFailed",
      "type": "error"
    },
    {
      "anonymous": false,
      "inputs": [
        {
          "indexed": true,
          "internalType": "address",
          "name": "owner",
          "type": "address"
        },
        {
          "indexed": true,
          "internalType": "address",
          "name": "approved",
          "type": "address"
        },
        {
          "indexed": true,
          "internalType": "uint256",
          "name": "tokenId",
          "type": "uint256"
        }
      ],
      "name": "Approval",
      "type": "event"
    },
    {
      "anonymous": false,
      "inputs": [
        {
          "indexed": true,
          "internalType": "address",
          "name": "owner",
          "type": "address"
        },
        {
          "indexed": true,
          "internalType": "address",
          "name": "operator",
          "type": "address"
        },
        {
          "indexed": false,
          "internalType": "bool",
          "name": "approved",
          "type": "bool"
        }
      ],
      "name": "ApprovalForAll",
      "type": "event"
    },
    {
      "anonymous": false,
      "inputs": [
        {
          "indexed": true,
          "internalType": "address",
          "name": "from",
          "type": "address"
        },
        {
          "indexed": true,
          "internalType": "address",
          "name": "to",
          "type": "address"
        },
        {
          "indexed": true,
          "internalType": "uint256",
          "name": "tokenId",
          "type": "uint256"
        }
      ],
      "name": "Transfer",
      "type": "event"
    },
    {
      "inputs": [
        {
          "internalType": "address",
          "name": "to",
          "type": "address"
        },
        {
          "internalType": "uint256",
          "name": "tokenId",
          "type": "uint256"
        }
      ],
      "name": "approve",
      "outputs": [],
      "stateMutability": "nonpayable",
      "type": "function"
    },
    {
      "inputs": [
        {
          "internalType": "address",
          "name": "owner",
          "type": "address"
        }
      ],
      "name": "balanceOf",
      "outputs": [
        {
          "internalType": "uint256",
          "name": "",
          "type": "uint256"
        }
      ],
      "stateMutability": "view",
      "type": "function"
    },
    {
      "inputs": [
        {
          "internalType": "string",
          "name": "",
          "type": "string"
        }
      ],
      "name": "domains",
      "outputs": [
        {
          "internalType": "address",
          "name": "",
          "type": "address"
        }
      ],
      "stateMutability": "view",
      "type": "function"
    },
    {
      "inputs": [
        {
          "internalType": "string",
          "name": "name",
          "type": "string"
        }
      ],
      "name": "getAddress",
      "outputs": [
        {
          "internalType": "address",
          "name": "",
          "type": "address"
        }
      ],
      "stateMutability": "view",
      "type": "function"
    },
    {
      "inputs": [],
      "name": "getAllNames",
      "outputs": [
        {
          "internalType": "string[]",
          "name": "",
          "type": "string[]"
        }
      ],
      "stateMutability": "view",
      "type": "function"
    },
    {
      "inputs": [
        {
          "internalType": "uint256",
          "name": "tokenId",
          "type": "uint256"
        }
      ],
      "name": "getApproved",
      "outputs": [
        {
          "internalType": "address",
          "name": "",
          "type": "address"
        }
      ],
      "stateMutability": "view",
      "type": "function"
    },
    {
      "inputs": [
        {
          "internalType": "string",
          "name": "name",
          "type": "string"
        }
      ],
      "name": "getRecord",
      "outputs": [
        {
          "internalType": "string",
          "name": "",
          "type": "string"
        }
      ],
      "stateMutability": "view",
      "type": "function"
    },
    {
      "inputs": [
        {
          "internalType": "address",
          "name": "owner",
          "type": "address"
        },
        {
          "internalType": "address",
          "name": "operator",
          "type": "address"
        }
      ],
      "name": "isApprovedForAll",
      "outputs": [
        {
          "internalType": "bool",
          "name": "",
          "type": "bool"
        }
      ],
      "stateMutability": "view",
      "type": "function"
    },
    {
      "inputs": [],
      "name": "isOwner",
      "outputs": [
        {
          "internalType": "bool",
          "name": "",
          "type": "bool"
        }
      ],
      "stateMutability": "view",
      "type": "function"
    },
    {
      "inputs": [
        {
          "internalType": "string",
          "name": "name",
          "type": "string"
        }
      ],
      "name": "isValidName",
      "outputs": [
        {
          "internalType": "bool",
          "name": "",
          "type": "bool"
        }
      ],
      "stateMutability": "pure",
      "type": "function"
    },
    {
      "inputs": [],
      "name": "name",
      "outputs": [
        {
          "internalType": "string",
          "name": "",
          "type": "string"
        }
      ],
      "stateMutability": "view",
      "type": "function"
    },
    {
      "inputs": [
        {
          "internalType": "uint256",
          "name": "",
          "type": "uint256"
        }
      ],
      "name": "names",
      "outputs": [
        {
          "internalType": "string",
          "name": "",
          "type": "string"
        }
      ],
      "stateMutability": "view",
      "type": "function"
    },
    {
      "inputs": [],
      "name": "owner",
      "outputs": [
        {
          "internalType": "address payable",
          "name": "",
          "type": "address"
        }
      ],
      "stateMutability": "view",
      "type": "function"
    },
    {
      "inputs": [
        {
          "internalType": "uint256",
          "name": "tokenId",
          "type": "uint256"
        }
      ],
      "name": "ownerOf",
      "outputs": [
        {
          "internalType": "address",
          "name": "",
          "type": "address"
        }
      ],
      "stateMutability": "view",
      "type": "function"
    },
    {
      "inputs": [
        {
          "internalType": "string",
          "name": "name",
          "type": "string"
        }
      ],
      "name": "priceOf",
      "outputs": [
        {
          "internalType": "uint256",
          "name": "",
          "type": "uint256"
        }
      ],
      "stateMutability": "pure",
      "type": "function"
    },
    {
      "inputs": [
        {
          "internalType": "string",
          "name": "",
          "type": "string"
        }
      ],
      "name": "records",
      "outputs": [
        {
          "internalType": "string",
          "name": "",
          "type": "string"
        }
      ],
      "stateMutability": "view",
      "type": "function"
    },
    {
      "inputs": [
        {
          "internalType": "string",
          "name": "name",
          "type": "string"
        }
      ],
      "name": "register",
      "outputs": [],
      "stateMutability": "payable",
      "type": "function"
    },
    {
      "inputs": [
        {
          "internalType": "address",
          "name": "from",
          "type": "address"
        },
        {
          "internalType": "address",
          "name": "to",
          "type": "address"
        },
        {
          "internalType": "uint256",
          "name": "tokenId",
          "type": "uint256"
        }
      ],
      "name": "safeTransferFrom",
      "outputs": [],
      "stateMutability": "nonpayable",
      "type": "function"
    },
    {
      "inputs": [
        {
          "internalType": "address",
          "name": "from",
          "type": "address"
        },
        {
          "internalType": "address",
          "name": "to",
          "type": "address"
        },
        {
          "internalType": "uint256",
          "name": "tokenId",
          "type": "uint256"
        },
        {
          "internalType": "bytes",
          "name": "data",
          "type": "bytes"
        }
      ],
      "name": "safeTransferFrom",
      "outputs": [],
      "stateMutability": "nonpayable",
      "type": "function"
    },
    {
      "inputs": [
        {
          "internalType": "address",
          "name": "operator",
          "type": "address"
        },
        {
          "internalType": "bool",
          "name": "approved",
          "type": "bool"
        }
      ],
      "name": "setApprovalForAll",
      "outputs": [],
      "stateMutability": "nonpayable",
      "type": "function"
    },
    {
      "inputs": [
        {
          "internalType": "string",
          "name": "name",
          "type": "string"
        },
        {
          "internalType": "string",
          "name": "record",
          "type": "string"
        }
      ],
      "name": "setRecord",
      "outputs": [],
      "stateMutability": "nonpayable",
      "type": "function"
    },
    {
      "inputs": [
        {
          "internalType": "bytes4",
          "name": "interfaceId",
          "type": "bytes4"
        }
      ],
      "name": "supportsInterface",
      "outputs": [
        {
          "internalType": "bool",
          "name": "",
          "type": "bool"
        }
      ],
      "stateMutability": "view",
      "type": "function"
    },
    {
      "inputs": [],
      "name": "symbol",
      "outputs": [
        {
          "internalType": "string",
          "name": "",
          "type": "string"
        }
      ],
      "stateMutability": "view",
      "type": "function"
    },
    {
      "inputs": [],
      "name": "tld",
      "outputs": [
        {
          "internalType": "string",
          "name": "",
          "type": "string"
        }
      ],
      "stateMutability": "view",
      "type": "function"
    },
    {
      "inputs": [
        {
          "internalType": "uint256",
          "name": "tokenId",
          "type": "uint256"
        }
      ],
      "name": "tokenURI",
      "outputs": [
        {
          "internalType": "string",
          "name": "",
          "type": "string"
        }
      ],
      "stateMutability": "view",
      "type": "function"
    },
    {
      "inputs": [
        {
          "internalType": "address",
          "name": "from",
          "type": "address"
        },
        {
          "internalType": "address",
          "name": "to",
          "type": "address"
        },
        {
          "internalType": "uint256",
          "name": "tokenId",
          "type": "uint256"
        }
      ],
      "name": "transferFrom",
      "outputs": [],
      "stateMutability": "nonpayable",
      "type": "function"
    },
    {
      "inputs": [],
      "name": "withdraw",
      "outputs": [],
      "stateMutability": "nonpayable",
      "type": "function"
    }
  ],
  "bytecode": "0x6080604052604051806108a0016040528061086b8152602001620055a761086b9139600a90816200003191906200051f565b506040518060400160405280600d81526020017f3c2f746578743e3c2f7376673e00000000000000000000000000000000000000815250600b90816200007891906200051f565b5060405162005e1238038062005e1283398181016040528101906200009e91906200076a565b6040518060400160405280601181526020017f46697368204e616d6520536572766963650000000000000000000000000000008152506040518060400160405280600381526020017f464e53000000000000000000000000000000000000000000000000000000000081525081600090816200011b91906200051f565b5080600190816200012d91906200051f565b50505033600960006101000a81548173ffffffffffffffffffffffffffffffffffffffff021916908373ffffffffffffffffffffffffffffffffffffffff16021790555080600890816200018291906200051f565b50620001cf6040518060400160405280601881526020017f2573206e616d652073657276696365206465706c6f796564000000000000000081525082620001d660201b62001b191760201c565b5062000848565b620002788282604051602401620001ef9291906200080d565b6040516020818303038152906040527f4b5c4277000000000000000000000000000000000000000000000000000000007bffffffffffffffffffffffffffffffffffffffffffffffffffffffff19166020820180517bffffffffffffffffffffffffffffffffffffffffffffffffffffffff83818316178352505050506200027c60201b60201c565b5050565b60008151905060006a636f6e736f6c652e6c6f679050602083016000808483855afa5050505050565b600081519050919050565b7f4e487b7100000000000000000000000000000000000000000000000000000000600052604160045260246000fd5b7f4e487b7100000000000000000000000000000000000000000000000000000000600052602260045260246000fd5b600060028204905060018216806200032757607f821691505b6020821081036200033d576200033c620002df565b5b50919050565b60008190508160005260206000209050919050565b60006020601f8301049050919050565b600082821b905092915050565b600060088302620003a77fffffffffffffffffffffffffffffffffffffffffffffffffffffffffffffffff8262000368565b620003b3868362000368565b95508019841693508086168417925050509392505050565b6000819050919050565b6000819050919050565b600062000400620003fa620003f484620003cb565b620003d5565b620003cb565b9050919050565b6000819050919050565b6200041c83620003df565b620004346200042b8262000407565b84845462000375565b825550505050565b600090565b6200044b6200043c565b6200045881848462000411565b505050565b5b8181101562000480576200047460008262000441565b6001810190506200045e565b5050565b601f821115620004cf57620004998162000343565b620004a48462000358565b81016020851015620004b4578190505b620004cc620004c38562000358565b8301826200045d565b50505b505050565b600082821c905092915050565b6000620004f460001984600802620004d4565b1980831691505092915050565b60006200050f8383620004e1565b9150826002028217905092915050565b6200052a82620002a5565b67ffffffffffffffff811115620005465762000545620002b0565b5b6200055282546200030e565b6200055f82828562000484565b600060209050601f83116001811462000597576000841562000582578287015190505b6200058e858262000501565b865550620005fe565b601f198416620005a78662000343565b60005b82811015620005d157848901518255600182019150602085019450602081019050620005aa565b86831015620005f15784890151620005ed601f891682620004e1565b8355505b6001600288020188555050505b505050505050565b6000604051905090565b600080fd5b600080fd5b600080fd5b600080fd5b6000601f19601f8301169050919050565b620006408262000624565b810181811067ffffffffffffffff82111715620006625762000661620002b0565b5b80604052505050565b60006200067762000606565b905062000685828262000635565b919050565b600067ffffffffffffffff821115620006a857620006a7620002b0565b5b620006b38262000624565b9050602081019050919050565b60005b83811015620006e0578082015181840152602081019050620006c3565b60008484015250505050565b600062000703620006fd846200068a565b6200066b565b9050828152602081018484840111156200072257620007216200061f565b5b6200072f848285620006c0565b509392505050565b600082601f8301126200074f576200074e6200061a565b5b815162000761848260208601620006ec565b91505092915050565b60006020828403121562000783576200078262000610565b5b600082015167ffffffffffffffff811115620007a457620007a362000615565b5b620007b28482850162000737565b91505092915050565b600082825260208201905092915050565b6000620007d982620002a5565b620007e58185620007bb565b9350620007f7818560208601620006c0565b620008028162000624565b840191505092915050565b60006040820190508181036000830152620008298185620007cc565b905081810360208301526200083f8184620007cc565b90509392505050565b614d4f80620008586000396000f3fe60806040526004361061019c5760003560e01c80636352211e116100ec578063b88d4fde1161008a578063c87b56dd11610064578063c87b56dd14610624578063e985e9c514610661578063f2c298be1461069e578063fb825e5f146106ba5761019c565b8063b88d4fde14610595578063bf40fac1146105be578063c1880a98146105fb5761019c565b80638f32d59b116100c65780638f32d59b146104d957806395d89b4114610504578063a22cb4651461052f578063ab9a78df146105585761019c565b80636352211e1461043457806370a08231146104715780638da5cb5b146104ae5761019c565b806323b872dd116101595780633ccfd60b116101335780633ccfd60b1461037a57806342842e0e146103915780634622ab03146103ba578063541e771d146103f75761019c565b806323b872dd146102e957806326449235146103125780632d5514321461034f5761019c565b806301ffc9a7146101a157806306fdde03146101de578063081812fc14610209578063095ea7b31461024657806311dd88451461026f5780631e30397f146102ac575b600080fd5b3480156101ad57600080fd5b506101c860048036038101906101c39190613157565b6106e5565b6040516101d5919061319f565b60405180910390f35b3480156101ea57600080fd5b506101f36107c7565b604051610200919061324a565b60405180910390f35b34801561021557600080fd5b50610230600480360381019061022b91906132a2565b610859565b60405161023d9190613310565b60405180910390f35b34801561025257600080fd5b5061026d60048036038101906102689190613357565b61089f565b005b34801561027b57600080fd5b50610296600480360381019061029191906133fc565b6109b6565b6040516102a3919061324a565b60405180910390f35b3480156102b857600080fd5b506102d360048036038101906102ce91906133fc565b610a69565b6040516102e0919061319f565b60405180910390f35b3480156102f557600080fd5b50610310600480360381019061030b9190613449565b610ad6565b005b34801561031e57600080fd5b50610339600480360381019061033491906135cc565b610b36565b6040516103469190613310565b60405180910390f35b34801561035b57600080fd5b50610364610b7f565b604051610371919061324a565b60405180910390f35b34801561038657600080fd5b5061038f610c0d565b005b34801561039d57600080fd5b506103b860048036038101906103b39190613449565b610cf7565b005b3480156103c657600080fd5b506103e160048036038101906103dc91906132a2565b610d17565b6040516103ee919061324a565b60405180910390f35b34801561040357600080fd5b5061041e600480360381019061041991906135cc565b610db7565b60405161042b919061324a565b60405180910390f35b34801561044057600080fd5b5061045b600480360381019061045691906132a2565b610e6d565b6040516104689190613310565b60405180910390f35b34801561047d57600080fd5b5061049860048036038101906104939190613615565b610ef3565b6040516104a59190613651565b60405180910390f35b3480156104ba57600080fd5b506104c3610faa565b6040516104d0919061368d565b60405180910390f35b3480156104e557600080fd5b506104ee610fd0565b6040516104fb919061319f565b60405180910390f35b34801561051057600080fd5b50610519611028565b604051610526919061324a565b60405180910390f35b34801561053b57600080fd5b50610556600480360381019061055191906136d4565b6110ba565b005b34801561056457600080fd5b5061057f600480360381019061057a91906133fc565b6110d0565b60405161058c9190613651565b60405180910390f35b3480156105a157600080fd5b506105bc60048036038101906105b791906137b5565b61119e565b005b3480156105ca57600080fd5b506105e560048036038101906105e091906133fc565b611200565b6040516105f29190613310565b60405180910390f35b34801561060757600080fd5b50610622600480360381019061061d9190613838565b61124b565b005b34801561063057600080fd5b5061064b600480360381019061064691906132a2565b611326565b604051610658919061324a565b60405180910390f35b34801561066d57600080fd5b50610688600480360381019061068391906138b9565b611438565b604051610695919061319f565b60405180910390f35b6106b860048036038101906106b391906133fc565b6114cc565b005b3480156106c657600080fd5b506106cf61193b565b6040516106dc9190613a05565b60405180910390f35b60007f80ac58cd000000000000000000000000000000000000000000000000000000007bffffffffffffffffffffffffffffffffffffffffffffffffffffffff1916827bffffffffffffffffffffffffffffffffffffffffffffffffffffffff191614806107b057507f5b5e139f000000000000000000000000000000000000000000000000000000007bffffffffffffffffffffffffffffffffffffffffffffffffffffffff1916827bffffffffffffffffffffffffffffffffffffffffffffffffffffffff1916145b806107c057506107bf82611bb5565b5b9050919050565b6060600080546107d690613a56565b80601f016020809104026020016040519081016040528092919081815260200182805461080290613a56565b801561084f5780601f106108245761010080835404028352916020019161084f565b820191906000526020600020905b81548152906001019060200180831161083257829003601f168201915b5050505050905090565b600061086482611c1f565b6004600083815260200190815260200160002060009054906101000a900473ffffffffffffffffffffffffffffffffffffffff169050919050565b60006108aa82610e6d565b90508073ffffffffffffffffffffffffffffffffffffffff168373ffffffffffffffffffffffffffffffffffffffff160361091a576040517f08c379a000000000000000000000000000000000000000000000000000000000815260040161091190613af9565b60405180910390fd5b8073ffffffffffffffffffffffffffffffffffffffff16610939611c6a565b73ffffffffffffffffffffffffffffffffffffffff161480610968575061096781610962611c6a565b611438565b5b6109a7576040517f08c379a000000000000000000000000000000000000000000000000000000000815260040161099e90613b8b565b60405180910390fd5b6109b18383611c72565b505050565b6060600d83836040516109ca929190613bdb565b908152602001604051809103902080546109e390613a56565b80601f0160208091040260200160405190810160405280929190818152602001828054610a0f90613a56565b8015610a5c5780601f10610a3157610100808354040283529160200191610a5c565b820191906000526020600020905b815481529060010190602001808311610a3f57829003601f168201915b5050505050905092915050565b600080610ab984848080601f016020809104026020016040519081016040528093929190818152602001838380828437600081840152601f19601f82011690508083019250505050505050611d2b565b905060038110158015610acd5750600a8111155b91505092915050565b610ae7610ae1611c6a565b82611ee0565b610b26576040517f08c379a0000000000000000000000000000000000000000000000000000000008152600401610b1d90613c66565b60405180910390fd5b610b31838383611f75565b505050565b600c818051602081018201805184825260208301602085012081835280955050505050506000915054906101000a900473ffffffffffffffffffffffffffffffffffffffff1681565b60088054610b8c90613a56565b80601f0160208091040260200160405190810160405280929190818152602001828054610bb890613a56565b8015610c055780601f10610bda57610100808354040283529160200191610c05565b820191906000526020600020905b815481529060010190602001808311610be857829003601f168201915b505050505081565b610c15610fd0565b610c4b576040517f5fc483c500000000000000000000000000000000000000000000000000000000815260040160405180910390fd5b600047905060003373ffffffffffffffffffffffffffffffffffffffff1682604051610c7690613cb7565b60006040518083038185875af1925050503d8060008114610cb3576040519150601f19603f3d011682016040523d82523d6000602084013e610cb8565b606091505b5050905080610cf3576040517f750b219c00000000000000000000000000000000000000000000000000000000815260040160405180910390fd5b5050565b610d128383836040518060200160405280600081525061119e565b505050565b600e6020528060005260406000206000915090508054610d3690613a56565b80601f0160208091040260200160405190810160405280929190818152602001828054610d6290613a56565b8015610daf5780601f10610d8457610100808354040283529160200191610daf565b820191906000526020600020905b815481529060010190602001808311610d9257829003601f168201915b505050505081565b600d818051602081018201805184825260208301602085012081835280955050505050506000915090508054610dec90613a56565b80601f0160208091040260200160405190810160405280929190818152602001828054610e1890613a56565b8015610e655780601f10610e3a57610100808354040283529160200191610e65565b820191906000526020600020905b815481529060010190602001808311610e4857829003601f168201915b505050505081565b600080610e798361226e565b9050600073ffffffffffffffffffffffffffffffffffffffff168173ffffffffffffffffffffffffffffffffffffffff1603610eea576040517f08c379a0000000000000000000000000000000000000000000000000000000008152600401610ee190613d18565b60405180910390fd5b80915050919050565b60008073ffffffffffffffffffffffffffffffffffffffff168273ffffffffffffffffffffffffffffffffffffffff1603610f63576040517f08c379a0000000000000000000000000000000000000000000000000000000008152600401610f5a90613daa565b60405180910390fd5b600360008373ffffffffffffffffffffffffffffffffffffffff1673ffffffffffffffffffffffffffffffffffffffff168152602001908152602001600020549050919050565b600960009054906101000a900473ffffffffffffffffffffffffffffffffffffffff1681565b6000600960009054906101000a900473ffffffffffffffffffffffffffffffffffffffff1673ffffffffffffffffffffffffffffffffffffffff163373ffffffffffffffffffffffffffffffffffffffff1614905090565b60606001805461103790613a56565b80601f016020809104026020016040519081016040528092919081815260200182805461106390613a56565b80156110b05780601f10611085576101008083540402835291602001916110b0565b820191906000526020600020905b81548152906001019060200180831161109357829003601f168201915b5050505050905090565b6110cc6110c5611c6a565b83836122ab565b5050565b60008061112084848080601f016020809104026020016040519081016040528093929190818152602001838380828437600081840152601f19601f82011690508083019250505050505050611d2b565b90506000810361115c576040517fd7c5a83900000000000000000000000000000000000000000000000000000000815260040160405180910390fd5b60038103611174576611c37937e08000915050611198565b6004810361118c57660aa87bee538000915050611198565b66038d7ea4c680009150505b92915050565b6111af6111a9611c6a565b83611ee0565b6111ee576040517f08c379a00000000000000000000000000000000000000000000000000000000081526004016111e590613c66565b60405180910390fd5b6111fa84848484612417565b50505050565b6000600c8383604051611214929190613bdb565b908152602001604051809103902060009054906101000a900473ffffffffffffffffffffffffffffffffffffffff16905092915050565b3373ffffffffffffffffffffffffffffffffffffffff16600c8585604051611274929190613bdb565b908152602001604051809103902060009054906101000a900473ffffffffffffffffffffffffffffffffffffffff1673ffffffffffffffffffffffffffffffffffffffff16146112f0576040517fcf62cd9700000000000000000000000000000000000000000000000000000000815260040160405180910390fd5b8181600d8686604051611304929190613bdb565b9081526020016040518091039020918261131f929190613f81565b5050505050565b606061133182611c1f565b600060066000848152602001908152602001600020805461135190613a56565b80601f016020809104026020016040519081016040528092919081815260200182805461137d90613a56565b80156113ca5780601f1061139f576101008083540402835291602001916113ca565b820191906000526020600020905b8154815290600101906020018083116113ad57829003601f168201915b5050505050905060006113db612473565b905060008151036113f0578192505050611433565b60008251111561142557808260405160200161140d929190614082565b60405160208183030381529060405292505050611433565b61142e8461248a565b925050505b919050565b6000600560008473ffffffffffffffffffffffffffffffffffffffff1673ffffffffffffffffffffffffffffffffffffffff16815260200190815260200160002060008373ffffffffffffffffffffffffffffffffffffffff1673ffffffffffffffffffffffffffffffffffffffff16815260200190815260200160002060009054906101000a900460ff16905092915050565b600073ffffffffffffffffffffffffffffffffffffffff16600c83836040516114f6929190613bdb565b908152602001604051809103902060009054906101000a900473ffffffffffffffffffffffffffffffffffffffff1673ffffffffffffffffffffffffffffffffffffffff1614611572576040517f87c1d65e00000000000000000000000000000000000000000000000000000000815260040160405180910390fd5b61157c8282610a69565b6115bf5781816040517f7f19f48d0000000000000000000000000000000000000000000000000000000081526004016115b69291906140d3565b60405180910390fd5b6115c982826110d0565b341015611602576040517fcd1c886700000000000000000000000000000000000000000000000000000000815260040160405180910390fd5b60008282600860405160200161161a939291906141c6565b60405160208183030381529060405290506000600a82600b604051602001611644939291906141f7565b6040516020818303038152906040529050600061166160076124f2565b905060006116b286868080601f016020809104026020016040519081016040528093929190818152602001838380828437600081840152601f19601f82011690508083019250505050505050611d2b565b905060006116bf82612500565b90506117b3604051806060016040528060318152602001614c706031913988888080601f016020809104026020016040519081016040528093929190818152602001838380828437600081840152601f19601f820116905080830192505050505050506008805461172f90613a56565b80601f016020809104026020016040519081016040528092919081815260200182805461175b90613a56565b80156117a85780601f1061177d576101008083540402835291602001916117a8565b820191906000526020600020905b81548152906001019060200180831161178b57829003601f168201915b5050505050866125ce565b60006117e9866117c287612670565b846040516020016117d5939291906143a4565b604051602081830303815290604052612670565b90506000816040516020016117fe919061444d565b6040516020818303038152906040529050611830604051806060016040528060398152602001614c3760399139612807565b61186f6040518060400160405280600e81526020017f46696e616c20746f6b656e55524900000000000000000000000000000000000081525082611b19565b611890604051806060016040528060398152602001614ca160399139612807565b61189a33866128a0565b6118a485826128be565b33600c8a8a6040516118b7929190613bdb565b908152602001604051809103902060006101000a81548173ffffffffffffffffffffffffffffffffffffffff021916908373ffffffffffffffffffffffffffffffffffffffff1602179055508888600e60008881526020019081526020016000209182611925929190613f81565b50611930600761292b565b505050505050505050565b606061197b6040518060400160405280601f81526020017f47657474696e6720616c6c206e616d65732066726f6d20636f6e747261637400815250612807565b600061198760076124f2565b67ffffffffffffffff8111156119a05761199f6134a1565b5b6040519080825280602002602001820160405280156119d357816020015b60608152602001906001900390816119be5790505b50905060005b6119e360076124f2565b811015611b1157600e60008281526020019081526020016000208054611a0890613a56565b80601f0160208091040260200160405190810160405280929190818152602001828054611a3490613a56565b8015611a815780601f10611a5657610100808354040283529160200191611a81565b820191906000526020600020905b815481529060010190602001808311611a6457829003601f168201915b5050505050828281518110611a9957611a9861446f565b5b6020026020010181905250611afe6040518060400160405280601781526020017f4e616d6520666f7220746f6b656e20256420697320257300000000000000000081525082848481518110611af157611af061446f565b5b6020026020010151612941565b8080611b09906144cd565b9150506119d9565b508091505090565b611bb18282604051602401611b2f929190614515565b6040516020818303038152906040527f4b5c4277000000000000000000000000000000000000000000000000000000007bffffffffffffffffffffffffffffffffffffffffffffffffffffffff19166020820180517bffffffffffffffffffffffffffffffffffffffffffffffffffffffff83818316178352505050506129e0565b5050565b60007f01ffc9a7000000000000000000000000000000000000000000000000000000007bffffffffffffffffffffffffffffffffffffffffffffffffffffffff1916827bffffffffffffffffffffffffffffffffffffffffffffffffffffffff1916149050919050565b611c2881612a09565b611c67576040517f08c379a0000000000000000000000000000000000000000000000000000000008152600401611c5e90613d18565b60405180910390fd5b50565b600033905090565b816004600083815260200190815260200160002060006101000a81548173ffffffffffffffffffffffffffffffffffffffff021916908373ffffffffffffffffffffffffffffffffffffffff160217905550808273ffffffffffffffffffffffffffffffffffffffff16611ce583610e6d565b73ffffffffffffffffffffffffffffffffffffffff167f8c5be1e5ebec7d5bd14f71427d1e84f3dd0314c0f7b2291e5b200ac8c7c3b92560405160405180910390a45050565b60008060008084519050600092505b80821015611ed5576000858381518110611d5757611d5661446f565b5b602001015160f81c60f81b9050608060f81b817effffffffffffffffffffffffffffffffffffffffffffffffffffffffffffff19161015611da657600183611d9f919061454c565b9250611ec1565b60e060f81b817effffffffffffffffffffffffffffffffffffffffffffffffffffffffffffff19161015611de857600283611de1919061454c565b9250611ec0565b60f060f81b817effffffffffffffffffffffffffffffffffffffffffffffffffffffffffffff19161015611e2a57600383611e23919061454c565b9250611ebf565b60f8801b817effffffffffffffffffffffffffffffffffffffffffffffffffffffffffffff19161015611e6b57600483611e64919061454c565b9250611ebe565b60fc60f81b817effffffffffffffffffffffffffffffffffffffffffffffffffffffffffffff19161015611ead57600583611ea6919061454c565b9250611ebd565b600683611eba919061454c565b92505b5b5b5b5b508280611ecd906144cd565b935050611d3a565b829350505050919050565b600080611eec83610e6d565b90508073ffffffffffffffffffffffffffffffffffffffff168473ffffffffffffffffffffffffffffffffffffffff161480611f2e5750611f2d8185611438565b5b80611f6c57508373ffffffffffffffffffffffffffffffffffffffff16611f5484610859565b73ffffffffffffffffffffffffffffffffffffffff16145b91505092915050565b8273ffffffffffffffffffffffffffffffffffffffff16611f9582610e6d565b73ffffffffffffffffffffffffffffffffffffffff1614611feb576040517f08c379a0000000000000000000000000000000000000000000000000000000008152600401611fe2906145f2565b60405180910390fd5b600073ffffffffffffffffffffffffffffffffffffffff168273ffffffffffffffffffffffffffffffffffffffff160361205a576040517f08c379a000000000000000000000000000000000000000000000000000000000815260040161205190614684565b60405180910390fd5b6120678383836001612a4a565b8273ffffffffffffffffffffffffffffffffffffffff1661208782610e6d565b73ffffffffffffffffffffffffffffffffffffffff16146120dd576040517f08c379a00000000000000000000000000000000000000000000000000000000081526004016120d4906145f2565b60405180910390fd5b6004600082815260200190815260200160002060006101000a81549073ffffffffffffffffffffffffffffffffffffffff02191690556001600360008573ffffffffffffffffffffffffffffffffffffffff1673ffffffffffffffffffffffffffffffffffffffff168152602001908152602001600020600082825403925050819055506001600360008473ffffffffffffffffffffffffffffffffffffffff1673ffffffffffffffffffffffffffffffffffffffff16815260200190815260200160002060008282540192505081905550816002600083815260200190815260200160002060006101000a81548173ffffffffffffffffffffffffffffffffffffffff021916908373ffffffffffffffffffffffffffffffffffffffff160217905550808273ffffffffffffffffffffffffffffffffffffffff168473ffffffffffffffffffffffffffffffffffffffff167fddf252ad1be2c89b69c2b068fc378daa952ba7f163c4a11628f55a4df523b3ef60405160405180910390a46122698383836001612b70565b505050565b60006002600083815260200190815260200160002060009054906101000a900473ffffffffffffffffffffffffffffffffffffffff169050919050565b8173ffffffffffffffffffffffffffffffffffffffff168373ffffffffffffffffffffffffffffffffffffffff1603612319576040517f08c379a0000000000000000000000000000000000000000000000000000000008152600401612310906146f0565b60405180910390fd5b80600560008573ffffffffffffffffffffffffffffffffffffffff1673ffffffffffffffffffffffffffffffffffffffff16815260200190815260200160002060008473ffffffffffffffffffffffffffffffffffffffff1673ffffffffffffffffffffffffffffffffffffffff16815260200190815260200160002060006101000a81548160ff0219169083151502179055508173ffffffffffffffffffffffffffffffffffffffff168373ffffffffffffffffffffffffffffffffffffffff167f17307eab39ab6107e8899845ad3d59bd9653f200f220920489ca2b5937696c318360405161240a919061319f565b60405180910390a3505050565b612422848484611f75565b61242e84848484612b76565b61246d576040517f08c379a000000000000000000000000000000000000000000000000000000000815260040161246490614782565b60405180910390fd5b50505050565b606060405180602001604052806000815250905090565b606061249582611c1f565b600061249f612473565b905060008151116124bf57604051806020016040528060008152506124ea565b806124c984612500565b6040516020016124da929190614082565b6040516020818303038152906040525b915050919050565b600081600001549050919050565b60606000600161250f84612cfd565b01905060008167ffffffffffffffff81111561252e5761252d6134a1565b5b6040519080825280601f01601f1916602001820160405280156125605781602001600182028036833780820191505090505b509050600082602001820190505b6001156125c3578080600190039150507f3031323334353637383961626364656600000000000000000000000000000000600a86061a8153600a85816125b7576125b66147a2565b5b0494506000850361256e575b819350505050919050565b61266a848484846040516024016125e894939291906147d1565b6040516020818303038152906040527f8eafb02b000000000000000000000000000000000000000000000000000000007bffffffffffffffffffffffffffffffffffffffffffffffffffffffff19166020820180517bffffffffffffffffffffffffffffffffffffffffffffffffffffffff83818316178352505050506129e0565b50505050565b6060600082519050600081036126985760405180602001604052806000815250915050612802565b600060036002836126a9919061454c565b6126b3919061482b565b60046126bf919061485c565b905060006020826126d0919061454c565b67ffffffffffffffff8111156126e9576126e86134a1565b5b6040519080825280601f01601f19166020018201604052801561271b5781602001600182028036833780820191505090505b5090506000604051806060016040528060408152602001614cda604091399050600181016020830160005b868110156127bf5760038101905062ffffff818a015116603f8160121c168401518060081b905060ff603f83600c1c1686015116810190508060081b905060ff603f8360061c1686015116810190508060081b905060ff603f831686015116810190508060e01b90508084526004840193505050612746565b5060038606600181146127d957600281146127e9576127f4565b613d3d60f01b60028303526127f4565b603d60f81b60018303525b508484525050819450505050505b919050565b61289d8160405160240161281b919061324a565b6040516020818303038152906040527f41304fac000000000000000000000000000000000000000000000000000000007bffffffffffffffffffffffffffffffffffffffffffffffffffffffff19166020820180517bffffffffffffffffffffffffffffffffffffffffffffffffffffffff83818316178352505050506129e0565b50565b6128ba828260405180602001604052806000815250612e50565b5050565b6128c782612a09565b612906576040517f08c379a00000000000000000000000000000000000000000000000000000000081526004016128fd90614910565b60405180910390fd5b806006600084815260200190815260200160002090816129269190614930565b505050565b6001816000016000828254019250508190555050565b6129db83838360405160240161295993929190614a02565b6040516020818303038152906040527f5970e089000000000000000000000000000000000000000000000000000000007bffffffffffffffffffffffffffffffffffffffffffffffffffffffff19166020820180517bffffffffffffffffffffffffffffffffffffffffffffffffffffffff83818316178352505050506129e0565b505050565b60008151905060006a636f6e736f6c652e6c6f679050602083016000808483855afa5050505050565b60008073ffffffffffffffffffffffffffffffffffffffff16612a2b8361226e565b73ffffffffffffffffffffffffffffffffffffffff1614159050919050565b6001811115612b6a57600073ffffffffffffffffffffffffffffffffffffffff168473ffffffffffffffffffffffffffffffffffffffff1614612ade5780600360008673ffffffffffffffffffffffffffffffffffffffff1673ffffffffffffffffffffffffffffffffffffffff1681526020019081526020016000206000828254612ad69190614a47565b925050819055505b600073ffffffffffffffffffffffffffffffffffffffff168373ffffffffffffffffffffffffffffffffffffffff1614612b695780600360008573ffffffffffffffffffffffffffffffffffffffff1673ffffffffffffffffffffffffffffffffffffffff1681526020019081526020016000206000828254612b61919061454c565b925050819055505b5b50505050565b50505050565b6000612b978473ffffffffffffffffffffffffffffffffffffffff16612eab565b15612cf0578373ffffffffffffffffffffffffffffffffffffffff1663150b7a02612bc0611c6a565b8786866040518563ffffffff1660e01b8152600401612be29493929190614ad0565b6020604051808303816000875af1925050508015612c1e57506040513d601f19601f82011682018060405250810190612c1b9190614b31565b60015b612ca0573d8060008114612c4e576040519150601f19603f3d011682016040523d82523d6000602084013e612c53565b606091505b506000815103612c98576040517f08c379a0000000000000000000000000000000000000000000000000000000008152600401612c8f90614782565b60405180910390fd5b805181602001fd5b63150b7a0260e01b7bffffffffffffffffffffffffffffffffffffffffffffffffffffffff1916817bffffffffffffffffffffffffffffffffffffffffffffffffffffffff191614915050612cf5565b600190505b949350505050565b600080600090507a184f03e93ff9f4daa797ed6e38ed64bf6a1f0100000000000000008310612d5b577a184f03e93ff9f4daa797ed6e38ed64bf6a1f0100000000000000008381612d5157612d506147a2565b5b0492506040810190505b6d04ee2d6d415b85acef81000000008310612d98576d04ee2d6d415b85acef81000000008381612d8e57612d8d6147a2565b5b0492506020810190505b662386f26fc100008310612dc757662386f26fc100008381612dbd57612dbc6147a2565b5b0492506010810190505b6305f5e1008310612df0576305f5e1008381612de657612de56147a2565b5b0492506008810190505b6127108310612e15576127108381612e0b57612e0a6147a2565b5b0492506004810190505b60648310612e385760648381612e2e57612e2d6147a2565b5b0492506002810190505b600a8310612e47576001810190505b80915050919050565b612e5a8383612ece565b612e676000848484612b76565b612ea6576040517f08c379a0000000000000000000000000000000000000000000000000000000008152600401612e9d90614782565b60405180910390fd5b505050565b6000808273ffffffffffffffffffffffffffffffffffffffff163b119050919050565b600073ffffffffffffffffffffffffffffffffffffffff168273ffffffffffffffffffffffffffffffffffffffff1603612f3d576040517f08c379a0000000000000000000000000000000000000000000000000000000008152600401612f3490614baa565b60405180910390fd5b612f4681612a09565b15612f86576040517f08c379a0000000000000000000000000000000000000000000000000000000008152600401612f7d90614c16565b60405180910390fd5b612f94600083836001612a4a565b612f9d81612a09565b15612fdd576040517f08c379a0000000000000000000000000000000000000000000000000000000008152600401612fd490614c16565b60405180910390fd5b6001600360008473ffffffffffffffffffffffffffffffffffffffff1673ffffffffffffffffffffffffffffffffffffffff16815260200190815260200160002060008282540192505081905550816002600083815260200190815260200160002060006101000a81548173ffffffffffffffffffffffffffffffffffffffff021916908373ffffffffffffffffffffffffffffffffffffffff160217905550808273ffffffffffffffffffffffffffffffffffffffff16600073ffffffffffffffffffffffffffffffffffffffff167fddf252ad1be2c89b69c2b068fc378daa952ba7f163c4a11628f55a4df523b3ef60405160405180910390a46130e7600083836001612b70565b5050565b6000604051905090565b600080fd5b600080fd5b60007fffffffff0000000000000000000000000000000000000000000000000000000082169050919050565b613134816130ff565b811461313f57600080fd5b50565b6000813590506131518161312b565b92915050565b60006020828403121561316d5761316c6130f5565b5b600061317b84828501613142565b91505092915050565b60008115159050919050565b61319981613184565b82525050565b60006020820190506131b46000830184613190565b92915050565b600081519050919050565b600082825260208201905092915050565b60005b838110156131f45780820151818401526020810190506131d9565b60008484015250505050565b6000601f19601f8301169050919050565b600061321c826131ba565b61322681856131c5565b93506132368185602086016131d6565b61323f81613200565b840191505092915050565b600060208201905081810360008301526132648184613211565b905092915050565b6000819050919050565b61327f8161326c565b811461328a57600080fd5b50565b60008135905061329c81613276565b92915050565b6000602082840312156132b8576132b76130f5565b5b60006132c68482850161328d565b91505092915050565b600073ffffffffffffffffffffffffffffffffffffffff82169050919050565b60006132fa826132cf565b9050919050565b61330a816132ef565b82525050565b60006020820190506133256000830184613301565b92915050565b613334816132ef565b811461333f57600080fd5b50565b6000813590506133518161332b565b92915050565b6000806040838503121561336e5761336d6130f5565b5b600061337c85828601613342565b925050602061338d8582860161328d565b9150509250929050565b600080fd5b600080fd5b600080fd5b60008083601f8401126133bc576133bb613397565b5b8235905067ffffffffffffffff8111156133d9576133d861339c565b5b6020830191508360018202830111156133f5576133f46133a1565b5b9250929050565b60008060208385031215613413576134126130f5565b5b600083013567ffffffffffffffff811115613431576134306130fa565b5b61343d858286016133a6565b92509250509250929050565b600080600060608486031215613462576134616130f5565b5b600061347086828701613342565b935050602061348186828701613342565b92505060406134928682870161328d565b9150509250925092565b600080fd5b7f4e487b7100000000000000000000000000000000000000000000000000000000600052604160045260246000fd5b6134d982613200565b810181811067ffffffffffffffff821117156134f8576134f76134a1565b5b80604052505050565b600061350b6130eb565b905061351782826134d0565b919050565b600067ffffffffffffffff821115613537576135366134a1565b5b61354082613200565b9050602081019050919050565b82818337600083830152505050565b600061356f61356a8461351c565b613501565b90508281526020810184848401111561358b5761358a61349c565b5b61359684828561354d565b509392505050565b600082601f8301126135b3576135b2613397565b5b81356135c384826020860161355c565b91505092915050565b6000602082840312156135e2576135e16130f5565b5b600082013567ffffffffffffffff811115613600576135ff6130fa565b5b61360c8482850161359e565b91505092915050565b60006020828403121561362b5761362a6130f5565b5b600061363984828501613342565b91505092915050565b61364b8161326c565b82525050565b60006020820190506136666000830184613642565b92915050565b6000613677826132cf565b9050919050565b6136878161366c565b82525050565b60006020820190506136a2600083018461367e565b92915050565b6136b181613184565b81146136bc57600080fd5b50565b6000813590506136ce816136a8565b92915050565b600080604083850312156136eb576136ea6130f5565b5b60006136f985828601613342565b925050602061370a858286016136bf565b9150509250929050565b600067ffffffffffffffff82111561372f5761372e6134a1565b5b61373882613200565b9050602081019050919050565b600061375861375384613714565b613501565b9050828152602081018484840111156137745761377361349c565b5b61377f84828561354d565b509392505050565b600082601f83011261379c5761379b613397565b5b81356137ac848260208601613745565b91505092915050565b600080600080608085870312156137cf576137ce6130f5565b5b60006137dd87828801613342565b94505060206137ee87828801613342565b93505060406137ff8782880161328d565b925050606085013567ffffffffffffffff8111156138205761381f6130fa565b5b61382c87828801613787565b91505092959194509250565b60008060008060408587031215613852576138516130f5565b5b600085013567ffffffffffffffff8111156138705761386f6130fa565b5b61387c878288016133a6565b9450945050602085013567ffffffffffffffff81111561389f5761389e6130fa565b5b6138ab878288016133a6565b925092505092959194509250565b600080604083850312156138d0576138cf6130f5565b5b60006138de85828601613342565b92505060206138ef85828601613342565b9150509250929050565b600081519050919050565b600082825260208201905092915050565b6000819050602082019050919050565b600082825260208201905092915050565b6000613941826131ba565b61394b8185613925565b935061395b8185602086016131d6565b61396481613200565b840191505092915050565b600061397b8383613936565b905092915050565b6000602082019050919050565b600061399b826138f9565b6139a58185613904565b9350836020820285016139b785613915565b8060005b858110156139f357848403895281516139d4858261396f565b94506139df83613983565b925060208a019950506001810190506139bb565b50829750879550505050505092915050565b60006020820190508181036000830152613a1f8184613990565b905092915050565b7f4e487b7100000000000000000000000000000000000000000000000000000000600052602260045260246000fd5b60006002820490506001821680613a6e57607f821691505b602082108103613a8157613a80613a27565b5b50919050565b7f4552433732313a20617070726f76616c20746f2063757272656e74206f776e6560008201527f7200000000000000000000000000000000000000000000000000000000000000602082015250565b6000613ae36021836131c5565b9150613aee82613a87565b604082019050919050565b60006020820190508181036000830152613b1281613ad6565b9050919050565b7f4552433732313a20617070726f76652063616c6c6572206973206e6f7420746f60008201527f6b656e206f776e6572206f7220617070726f76656420666f7220616c6c000000602082015250565b6000613b75603d836131c5565b9150613b8082613b19565b604082019050919050565b60006020820190508181036000830152613ba481613b68565b9050919050565b600081905092915050565b6000613bc28385613bab565b9350613bcf83858461354d565b82840190509392505050565b6000613be8828486613bb6565b91508190509392505050565b7f4552433732313a2063616c6c6572206973206e6f7420746f6b656e206f776e6560008201527f72206f7220617070726f76656400000000000000000000000000000000000000602082015250565b6000613c50602d836131c5565b9150613c5b82613bf4565b604082019050919050565b60006020820190508181036000830152613c7f81613c43565b9050919050565b600081905092915050565b50565b6000613ca1600083613c86565b9150613cac82613c91565b600082019050919050565b6000613cc282613c94565b9150819050919050565b7f4552433732313a20696e76616c696420746f6b656e2049440000000000000000600082015250565b6000613d026018836131c5565b9150613d0d82613ccc565b602082019050919050565b60006020820190508181036000830152613d3181613cf5565b9050919050565b7f4552433732313a2061646472657373207a65726f206973206e6f74206120766160008201527f6c6964206f776e65720000000000000000000000000000000000000000000000602082015250565b6000613d946029836131c5565b9150613d9f82613d38565b604082019050919050565b60006020820190508181036000830152613dc381613d87565b9050919050565b600082905092915050565b60008190508160005260206000209050919050565b60006020601f8301049050919050565b600082821b905092915050565b600060088302613e377fffffffffffffffffffffffffffffffffffffffffffffffffffffffffffffffff82613dfa565b613e418683613dfa565b95508019841693508086168417925050509392505050565b6000819050919050565b6000613e7e613e79613e748461326c565b613e59565b61326c565b9050919050565b6000819050919050565b613e9883613e63565b613eac613ea482613e85565b848454613e07565b825550505050565b600090565b613ec1613eb4565b613ecc818484613e8f565b505050565b5b81811015613ef057613ee5600082613eb9565b600181019050613ed2565b5050565b601f821115613f3557613f0681613dd5565b613f0f84613dea565b81016020851015613f1e578190505b613f32613f2a85613dea565b830182613ed1565b50505b505050565b600082821c905092915050565b6000613f5860001984600802613f3a565b1980831691505092915050565b6000613f718383613f47565b9150826002028217905092915050565b613f8b8383613dca565b67ffffffffffffffff811115613fa457613fa36134a1565b5b613fae8254613a56565b613fb9828285613ef4565b6000601f831160018114613fe85760008415613fd6578287013590505b613fe08582613f65565b865550614048565b601f198416613ff686613dd5565b60005b8281101561401e57848901358255600182019150602085019450602081019050613ff9565b8683101561403b5784890135614037601f891682613f47565b8355505b6001600288020188555050505b50505050505050565b600061405c826131ba565b6140668185613bab565b93506140768185602086016131d6565b80840191505092915050565b600061408e8285614051565b915061409a8284614051565b91508190509392505050565b60006140b283856131c5565b93506140bf83858461354d565b6140c883613200565b840190509392505050565b600060208201905081810360008301526140ee8184866140a6565b90509392505050565b7f2e00000000000000000000000000000000000000000000000000000000000000600082015250565b600061412d600183613bab565b9150614138826140f7565b600182019050919050565b6000815461415081613a56565b61415a8186613bab565b94506001821660008114614175576001811461418a576141bd565b60ff19831686528115158202860193506141bd565b61419385613dd5565b60005b838110156141b557815481890152600182019150602081019050614196565b838801955050505b50505092915050565b60006141d3828587613bb6565b91506141de82614120565b91506141ea8284614143565b9150819050949350505050565b60006142038286614143565b915061420f8285614051565b915061421b8284614143565b9150819050949350505050565b7f7b226e616d65223a202200000000000000000000000000000000000000000000600082015250565b600061425e600a83613bab565b915061426982614228565b600a82019050919050565b7f222c20226465736372697074696f6e223a20224120646f6d61696e206f6e207460008201527f68652046697368206e616d652073657276696365222c2022696d616765223a2060208201527f22646174613a696d6167652f7376672b786d6c3b6261736536342c0000000000604082015250565b60006142f6605b83613bab565b915061430182614274565b605b82019050919050565b7f222c226c656e677468223a220000000000000000000000000000000000000000600082015250565b6000614342600c83613bab565b915061434d8261430c565b600c82019050919050565b7f227d000000000000000000000000000000000000000000000000000000000000600082015250565b600061438e600283613bab565b915061439982614358565b600282019050919050565b60006143af82614251565b91506143bb8286614051565b91506143c6826142e9565b91506143d28285614051565b91506143dd82614335565b91506143e98284614051565b91506143f482614381565b9150819050949350505050565b7f646174613a6170706c69636174696f6e2f6a736f6e3b6261736536342c000000600082015250565b6000614437601d83613bab565b915061444282614401565b601d82019050919050565b60006144588261442a565b91506144648284614051565b915081905092915050565b7f4e487b7100000000000000000000000000000000000000000000000000000000600052603260045260246000fd5b7f4e487b7100000000000000000000000000000000000000000000000000000000600052601160045260246000fd5b60006144d88261326c565b91507fffffffffffffffffffffffffffffffffffffffffffffffffffffffffffffffff820361450a5761450961449e565b5b600182019050919050565b6000604082019050818103600083015261452f8185613211565b905081810360208301526145438184613211565b90509392505050565b60006145578261326c565b91506145628361326c565b925082820190508082111561457a5761457961449e565b5b92915050565b7f4552433732313a207472616e736665722066726f6d20696e636f72726563742060008201527f6f776e6572000000000000000000000000000000000000000000000000000000602082015250565b60006145dc6025836131c5565b91506145e782614580565b604082019050919050565b6000602082019050818103600083015261460b816145cf565b9050919050565b7f4552433732313a207472616e7366657220746f20746865207a65726f2061646460008201527f7265737300000000000000000000000000000000000000000000000000000000602082015250565b600061466e6024836131c5565b915061467982614612565b604082019050919050565b6000602082019050818103600083015261469d81614661565b9050919050565b7f4552433732313a20617070726f766520746f2063616c6c657200000000000000600082015250565b60006146da6019836131c5565b91506146e5826146a4565b602082019050919050565b60006020820190508181036000830152614709816146cd565b9050919050565b7f4552433732313a207472616e7366657220746f206e6f6e20455243373231526560008201527f63656976657220696d706c656d656e7465720000000000000000000000000000602082015250565b600061476c6032836131c5565b915061477782614710565b604082019050919050565b6000602082019050818103600083015261479b8161475f565b9050919050565b7f4e487b7100000000000000000000000000000000000000000000000000000000600052601260045260246000fd5b600060808201905081810360008301526147eb8187613211565b905081810360208301526147ff8186613211565b905081810360408301526148138185613211565b90506148226060830184613642565b95945050505050565b60006148368261326c565b91506148418361326c565b925082614851576148506147a2565b5b828204905092915050565b60006148678261326c565b91506148728361326c565b92508282026148808161326c565b915082820484148315176148975761489661449e565b5b5092915050565b7f45524337323155524953746f726167653a2055524920736574206f66206e6f6e60008201527f6578697374656e7420746f6b656e000000000000000000000000000000000000602082015250565b60006148fa602e836131c5565b91506149058261489e565b604082019050919050565b60006020820190508181036000830152614929816148ed565b9050919050565b614939826131ba565b67ffffffffffffffff811115614952576149516134a1565b5b61495c8254613a56565b614967828285613ef4565b600060209050601f83116001811461499a5760008415614988578287015190505b6149928582613f65565b8655506149fa565b601f1984166149a886613dd5565b60005b828110156149d0578489015182556001820191506020850194506020810190506149ab565b868310156149ed57848901516149e9601f891682613f47565b8355505b6001600288020188555050505b505050505050565b60006060820190508181036000830152614a1c8186613211565b9050614a2b6020830185613642565b8181036040830152614a3d8184613211565b9050949350505050565b6000614a528261326c565b9150614a5d8361326c565b9250828203905081811115614a7557614a7461449e565b5b92915050565b600081519050919050565b600082825260208201905092915050565b6000614aa282614a7b565b614aac8185614a86565b9350614abc8185602086016131d6565b614ac581613200565b840191505092915050565b6000608082019050614ae56000830187613301565b614af26020830186613301565b614aff6040830185613642565b8181036060830152614b118184614a97565b905095945050505050565b600081519050614b2b8161312b565b92915050565b600060208284031215614b4757614b466130f5565b5b6000614b5584828501614b1c565b91505092915050565b7f4552433732313a206d696e7420746f20746865207a65726f2061646472657373600082015250565b6000614b946020836131c5565b9150614b9f82614b5e565b602082019050919050565b60006020820190508181036000830152614bc381614b87565b9050919050565b7f4552433732313a20746f6b656e20616c7265616479206d696e74656400000000600082015250565b6000614c00601c836131c5565b9150614c0b82614bca565b602082019050919050565b60006020820190508181036000830152614c2f81614bf3565b905091905056fe0a2d2d2d2d2d2d2d2d2d2d2d2d2d2d2d2d2d2d2d2d2d2d2d2d2d2d2d2d2d2d2d2d2d2d2d2d2d2d2d2d2d2d2d2d2d2d2d2d2d2d2d2d2d2d2d2d5265676973746572696e672025732e2573206f6e2074686520636f6e7472616374207769746820746f6b656e49442025642d2d2d2d2d2d2d2d2d2d2d2d2d2d2d2d2d2d2d2d2d2d2d2d2d2d2d2d2d2d2d2d2d2d2d2d2d2d2d2d2d2d2d2d2d2d2d2d2d2d2d2d2d2d2d2d0a4142434445464748494a4b4c4d4e4f505152535455565758595a6162636465666768696a6b6c6d6e6f707172737475767778797a303132333435363738392b2fa2646970667358221220619c7f1e176d2b1ebd366a6d095f40d394bd82772c49559f678a2f3d388dd42d64736f6c634300081100333c73766720786d6c6e733d22687474703a2f2f7777772e77332e6f72672f323030302f737667222077696474683d2232373022206865696768743d22323730222066696c6c3d226e6f6e65223e3c706174682066696c6c3d2275726c282342292220643d224d302030683237307632373048307a222f3e3c646566733e3c66696c7465722069643d22412220636f6c6f722d696e746572706f6c6174696f6e2d66696c746572733d2273524742222066696c746572556e6974733d227573657253706163654f6e55736522206865696768743d22323730222077696474683d22323730223e3c666544726f70536861646f772064783d2230222064793d22312220737464446576696174696f6e3d22322220666c6f6f642d6f7061636974793d222e323235222077696474683d223230302522206865696768743d2232303025222f3e3c2f66696c7465723e3c2f646566733e3c7061746820643d224d37322e3836332034322e393439632d2e3636382d2e3338372d312e3432362d2e35392d322e3139372d2e3539732d312e3532392e3230342d322e3139372e35396c2d31302e30383120362e3033322d362e383520332e3933342d31302e30383120362e303332632d2e3636382e3338372d312e3432362e35392d322e3139372e3539732d312e3532392d2e3230342d322e3139372d2e35396c2d382e3031332d342e37323161342e353220342e35322030203020312d312e3538392d312e363136632d2e3338342d2e3636352d2e3539342d312e3431382d2e3630382d322e313837762d392e3331632d2e3031332d2e3737352e3138352d312e3533382e3537322d322e32303861342e323520342e323520302030203120312e3632352d312e3539356c372e3838342d342e3539632e3636382d2e33383720312e3432362d2e353920322e3139372d2e353973312e3532392e32303420322e3139372e35396c372e38383420342e353961342e353220342e353220302030203120312e35383920312e363136632e3338342e3636352e35393420312e3431382e36303820322e31383776362e3033326c362e38352d342e303635762d362e303332632e3031332d2e3737352d2e3138352d312e3533382d2e3537322d322e32303861342e323520342e32352030203020302d312e3632352d312e3539354c34312e3435362032342e3539632d2e3636382d2e3338372d312e3432362d2e35392d322e3139372d2e3539732d312e3532392e3230342d322e3139372e35396c2d31342e38363420382e36353561342e323520342e32352030203020302d312e36323520312e353935632d2e3338372e36372d2e35383520312e3433342d2e35373220322e3230387631372e343431632d2e3031332e3737352e31383520312e3533382e35373220322e32303861342e323520342e323520302030203020312e36323520312e3539356c31342e38363420382e363535632e3636382e33383720312e3432362e353920322e3139372e353973312e3532392d2e32303420322e3139372d2e35396c31302e3038312d352e39303120362e38352d342e3036352031302e3038312d352e393031632e3636382d2e33383720312e3432362d2e353920322e3139372d2e353973312e3532392e32303420322e3139372e35396c372e38383420342e353961342e353220342e353220302030203120312e35383920312e363136632e3338342e3636352e35393420312e3431382e36303820322e31383776392e333131632e3031332e3737352d2e31383520312e3533382d2e35373220322e32303861342e323520342e32352030203020312d312e36323520312e3539356c2d372e38383420342e373231632d2e3636382e3338372d312e3432362e35392d322e3139372e3539732d312e3532392d2e3230342d322e3139372d2e35396c2d372e3838342d342e353961342e353220342e35322030203020312d312e3538392d312e363136632d2e3338352d2e3636352d2e3539342d312e3431382d2e3630382d322e313837762d362e3033326c2d362e383520342e30363576362e303332632d2e3031332e3737352e31383520312e3533382e35373220322e32303861342e323520342e323520302030203020312e36323520312e3539356c31342e38363420382e363535632e3636382e33383720312e3432362e353920322e3139372e353973312e3532392d2e32303420322e3139372d2e35396c31342e3836342d382e363535632e3635372d2e33393420312e3230342d2e393520312e3538392d312e363136732e3539342d312e3431382e3630392d322e3138375635352e353338632e3031332d2e3737352d2e3138352d312e3533382d2e3537322d322e32303861342e323520342e32352030203020302d312e3632352d312e3539356c2d31342e3939332d382e3738367a222066696c6c3d2223666666222f3e3c646566733e3c6c696e6561724772616469656e742069643d2242222078313d2230222079313d2230222078323d22323730222079323d2232373022206772616469656e74556e6974733d227573657253706163654f6e557365223e3c73746f702073746f702d636f6c6f723d2223636235656565222f3e3c73746f70206f66667365743d2231222073746f702d636f6c6f723d2223306364376534222073746f702d6f7061636974793d222e3939222f3e3c2f6c696e6561724772616469656e743e3c2f646566733e3c7465787420783d2233322e352220793d223233312220666f6e742d73697a653d223237222066696c6c3d2223666666222066696c7465723d2275726c282341292220666f6e742d66616d696c793d22506c7573204a616b617274612053616e732c44656a6156752053616e732c4e6f746f20436f6c6f7220456d6f6a692c4170706c6520436f6c6f7220456d6f6a692c73616e732d73657269662220666f6e742d7765696768743d22626f6c64223e",
  "linkReferences": {},
  "deployedLinkReferences": {}
}